:100000000C9452000C946F000C946F000C946F00D1
:100010000C946F000C946F000C946F000C946F00A4
:100020000C946F000C946F000C946F000C946F0094
:100030000C946F000C94FF000C946F000C946F00F4
:100040000C94B5000C946F000C946F000C946F002E
:100050000C946F000C946F000C946F000C946F0064
:100060000C946F000C946F00000000002500280025
:100070002B0000000000240027002A0004040404D0
:100080000404040402020202020203030303030342
:10009000010204081020408001020408102001021F
:1000A0000408102011241FBECFEFD8E0DEBFCDBF63
:1000B00011E0A0E0B1E0E4EFF4E002C005900D92A1
:1000C000A231B107D9F721E0A2E1B1E001C01D9250
:1000D000AE32B207E1F70E9448010C9478020C940A
:1000E000000090E0FC01E057FF4F249184589F4F9F
:1000F000FC018491882399F090E0880F991FFC01FE
:10010000EE58FF4FA591B491FC01E859FF4F85913E
:1001100094918FB7F894EC91E22BEC938FBF0895F4
:100120003FB7F89480912A0190912B01A0912C0166
:10013000B0912D0126B5A89B05C02F3F19F001965F
:10014000A11DB11D3FBFBA2FA92F982F8827BC0131
:10015000CD01620F711D811D911D42E0660F771F59
:10016000881F991F4A95D1F708951F920F920FB6D5
:100170000F9211242F933F938F939F93AF93BF932D
:100180008091260190912701A0912801B091290129
:100190003091250123E0230F2D3758F50196A11D3D
:1001A000B11D209325018093260190932701A093F0
:1001B0002801B093290180912A0190912B01A091EF
:1001C0002C01B0912D010196A11DB11D80932A0132
:1001D00090932B01A0932C01B0932D01BF91AF916F
:1001E0009F918F913F912F910F900FBE0F901F9075
:1001F000189526E8230F0296A11DB11DD2CF1F929C
:100200000F920FB60F9211242F933F938F939F93CA
:1002100088EC9FEA90938500809384008091000190
:10022000909101012091230130912401820F931FAD
:100230008830910504F590932401809323018091E7
:1002400023019091240197FF0AC081E090E09093F0
:10025000240180932301909301018093000181E0A8
:10026000809312019F918F913F912F910F900FBE1C
:100270000F901F90189586E090E090932401809352
:1002800023018FEF9FEF9093010180930001D7CF5F
:10029000789484B5826084BD84B5816084BD85B561
:1002A000826085BD85B5816085BD80916E0081606D
:1002B00080936E0010928100809181008260809313
:1002C0008100809181008160809381008091800015
:1002D0008160809380008091B10084608093B10040
:1002E0008091B00081608093B00080917A0084603A
:1002F00080937A0080917A00826080937A00809166
:100300007A00816080937A0080917A00806880937F
:100310007A001092C10086E00E9471008BE00E947A
:1003200071008AE00E94710089E00E94710088E0FB
:100330000E947100809180008C7F8093800080916A
:100340008100807E80938100809181008360809312
:10035000810088EC9FEA90938500809384008091CF
:100360006F00816080936F0084B58C7384BD84B509
:10037000836084BD84B5806C84BD85B5807E85BD79
:1003800085B5816085BD24E6A22EB12C3CE3232EE9
:10039000312C40E0842E40E0942E40912301509176
:1003A0002401FA01EE0FFF1FED5EFE4FB182A08225
:1003B00060911201C3E1D1E0FE0130E020E042177C
:1003C000530779F080819181009759F0662349F0B5
:1003D0008E31910509F45EC00CF04DC0059709F40B
:1003E0005CC02F5F3F4F32962830310541F71092A5
:1003F000120102E011E029913991EFEFE29FC00173
:10040000E39F900D1124B5010E94500267BDF801D1
:1004100080810E5F1F4F85B90E9490002B013C0127
:1004200084E1C82ED12CE12CF12C0E94900064199B
:10043000750986099709683E734081059105A8F3FF
:10044000F1E0CF1AD108E108F10828EE420E23E0CE
:10045000521E611C711CC114D104E104F10429F77E
:1004600081E0C332D80739F68114910409F495CF9D
:100470000E94000092CF8C33910539F084369105AB
:1004800009F0AFCF31822082ACCF8EE190E0918332
:100490008083A7CF85E090E0FACF11821082A1CFB0
:1004A00097FB072E16F4009407D077FD09D00E9421
:1004B000640207FC05D03EF4909581959F4F089506
:1004C000709561957F4F0895AA1BBB1B51E107C032
:1004D000AA1FBB1FA617B70710F0A61BB70B881FD4
:1004E000991F5A95A9F780959095BC01CD01089563
:0404F000F894FFCFAE
:1004F40001000000080004000C0002000A000600CD
:020504000E00E7
:00000001FF
